:100F5D0002610061023D00FC02670001024A0000CF
:100F6D000237000002630000114E4261636B557041
:100F7D00203A7072657373205331001109536574F3
:100F8D0054696D653A707265737320533400116A3C
:100F9D0044617465202D30312F30312F3230323293
:100FAD0000112654696D65202D2030303A30303ACD
:100FBD00303020000B1A3031323334353637383972
:100FCD0000013C00013F00014000014100014200D1
:090FDD00014300013986012500E1
:0C0FE700E563456424FF92A07F8E7E032A
:100FF300758910E4F53AF53BC3E53B9FE53A9E500E
:101003002B85628B853E8DE567456824FF928E3084
:101013008FFDE54A454B24FF928EE537453824FF83
:0D102300928F053BE53B70D0053A80CC2252
:100E410075A07FAFA0EF647B7005F545AF452275B6
:100E5100A0BFAFA0EF64B77006754501AF4522AFE3
:100E6100A0EF64BB7006754502AF4522AFA0EF64E9
:100E7100BD7006754503AF452275A0DFAFA0EF64D5
:100E8100D77006754504AF4522AFA0EF64DB70064D
:100E9100754505AF4522AFA0EF64DD7006754506C7
:100EA100AF452275A0EFAFA0EF64E7700675450767
:100EB100AF4522AFA0EF64EB7006754508AF452240
:100EC100AFA0EF64ED6003020E41754509AF452205
:10080000121030E4F57B7F80121067744E257BF860
:10081000E6FF6007121050057B80F0121062740929
:10082000257BF8E6FF6007121050057B80F020B2B0
:10083000047F0180027F0030B4047E0180027E00CC
:10084000EE4F60EA30B40375250120B203E4F525CC
:10085000E5256401702DF57B7F80121067746A2591
:100860007BF8E6FF6007121050057B80F0121062E3
:100870007426257BF8E6FF7003020AFA1210500571
:100880007B80EDE52570BDF57B7F80121067746A73
:10089000257BF8E6FF6007121050057B80F01210F0
:1008A000627426257BF8E6FF6007121050057B80F6
:1008B000F0753986D3E53994CF7480948040030273
:1008C0000E34AF391210677F0F1210677FF47E016C
:1008D000120FF3120E418F45AF39121067741A25AB
:1008E00045F8E6FF121050AF397E00EF64867003C2
:1008F000854544EF64874E7003854546EF64894E15
:100900007003854547EF648A4E7006854548753902
:10091000C6AF397E00EF64C77003854560EF64C8D9
:100920004E7003854565EF64CA4E7003854566EFDA
:1009300064CB4E7003854569EF64CB4E7008753902
:10094000CFAF39121067AF397E00EF648A70047D33
:100950000180027D00EF64874E70047F0180027F7A
:1009600000EF4DFFE539FD7C0064C870047E018016
:10097000027E00EE4FFFED64CB4C70047E018002DE
:100980007E00EE4F60020539E53964CF6003020E48
:100990002FF508AF087E00EF2401FDEE33FCC3EF16
:1009A0009DEC6480F87480984003020E2FEF701362
:1009B000E5449403748094804006753985020AE604
:1009C000E4F508E5086401702AE544640370047FD7
:1009D0000180027F00E546D3940174809480400436
:1009E0007E0180027E00EE5F6006753986020AE6AF
:1009F000750801E50864027021E54670047F0180F6
:100A0000027F00E54470047E0180027E00EE5F609C
:100A100006753986020AE6750802E5086403701453
:100A2000D3E5479401748094804006753988020AA2
:100A3000E6750803E5086404702AE547640170045C
:100A40007F0180027F00E548D39402748094804047
:100A5000047E0180027E00EE5F6006753989020A1D
:100A6000E6750804E50864057020E54870047F0118
:100A700080027F00E54770047E0180027E00EE5F09
:100A80006005753989805F750805E508640670138F
:100A9000D3E56094027480948040057539C6804621
:100AA000750806E50864067029E560640270047F35
:100AB0000180027F00E565D3940374809480400434
:100AC0007E0180027E00EE5F60057539C780177574
:100AD0000806E50864077019D3E5669405748094E8
:100AE00080400B7539C9AF39121067020E2F750897
:100AF00007E50864086003020E2A75250B7F0C12B7
:100B00001067C3E56094037480948050F5C3E56575
:100B1000940A748094804003020E1DC3E566940617
:100B2000748094804003020E10C3E569940A7480B7
:100B300094804003020E00E4F54DC3E54D94067425
:100B40008094804003020DF0E4F55FC3E55F940AF2
:100B5000748094804003020C887FCE121067741A50
:100B6000255FF8E6FF121050120FEFE5412401FF58
:100B7000E433FE7C00EFB56908ECB506047F018024
:100B8000027F00E565B53F047E0180027E00EE5FD6
:100B9000FFE5422401FDE433FCE54D7A00B505088C
:100BA000EAB504047E0180027E00EE5FFFE566B5D3
:100BB00040047E0180027E00E560B53C047D01803A
:100BC000027D00ED5EFEE55FD3954250047D01801D
:100BD000027D00ED5E5F602BE4F563F564E564453E
:100BE00063701EF508C3E508940174809480501169
:100BF000120FE7D2A0756300756401055F050880D8
:100C0000E40541E56670047F0180027F00E56070C5
:100C1000047E0180027E00EE5FFFE55FD3940174E5
:100C200080948050047E0180027E00EE5FFFE569C3
:100C300070047E0180027E00E565640970047D0118
:100C400080027D00ED5EFEE54D640170047D018053
:100C5000027D00ED5E5F602BE4F563F564E56445BD
:100C600063701EF508C3E5089401748094805011E8
:100C7000120FE7D2A0756300756401055F05088057
:100C8000E40541055F020B4BE525640B7005054D3E
:100C90007525167FCD121067741A254DF8E6FF12E0
:100CA00010507FCE121067E4F55F741A255FF8E6E6
:100CB000FF121050E525642170221569E566640570
:100CC0007004F566800205667FCB121067741A25E2
:100CD00069F8E6FF12105075252C80177FCB121093
:100CE00067741A2569F8E6FF1210507FCA12106760
:100CF000121049E525642C70087FCA121067121083
:100D000049E525643770087FCA121067121049E55B
:100D10006670047F0180027F00E569FD7C0070043D
:100D20007E0180027E00EE5FFFE54D70047E018053
:100D3000027E00EE5FFFE55F70047E0180027E00B0
:100D4000EE5F7003020DEBAF657E00EF6409700685
:100D5000F56505608077EF64034E70047F018002C3
:100D60007F00E560640270047E0180027E00EE5F19
:100D7000FFED4C70047E0180027E00EE5FFFE566B1
:100D800070047E0180027E00EE5FFFE54D70047E00
:100D90000180027E00EE5FFFE55F70047E0180024D
:100DA0007E00EE5F6025E4F560F5657FC812106790
:100DB000741A2565F8E6FF1210507FC71210677489
:100DC0001A2560F8E6FF121050800205657FC812F0
:100DD0001067741A2565F8E6FF1210507FC71210CD
:100DE00067741A2560F8E6FF121050054D020B3AA1
:100DF000E56964097005F5697525210569020B2906
:100E0000E56664067005F5667525370566020B1BF9
:100E1000E56564097002F5650565020B0DE5606422
:100E2000037002F5600560020B02050802099305D4
:100E3000390208B4120E41EF654560030208448090
:010E4000F3BE
:101030007F381210677F101210677F0C1210677FC5
:09104000061210677F010210671F
:05106200E4F57B7FC0F6
:101067008F90C2B6D2B77F0A7E00120FF3C2B702C3
:021077000FF375
:07104900741A2566F8E6FFAA
:101050008F90D2B6D2B77F0A7E00120FF3C2B702CA
:021060000FF38C
:03000000020ED11C
:0C0ED100787FE4F6D8FD75817B020F18D5
:100EDD00020800E493A3F8E493A34003F68001F223
:100EED0008DFF48029E493A3F85407240CC8C33316
:100EFD00C4540F4420C8834004F456800146F6DFE5
:100F0D00E4800B0102040810204080900F5DE47E08
:100F1D00019360BCA3FF543F30E509541FFEE493D9
:100F2D00A360010ECF54C025E060A840B8E493A3A0
:100F3D00FAE493A3F8E493A3C8C582C8CAC583CACB
:100F4D00F0A3C8C582C8CAC583CADFE9DEE780BE83
:010FE600000A
:00000001FF
