:100B310002650061024400FC02690001024E0000EE
:100B4100023D000011524261636B557020203A70E2
:100B510072657373203100110953657454696D65B1
:100B6100203A7072657373203000116C44617465B2
:100B7100202D20202F20202F3230323200112C54F2
:100B8100696D65202D2020203A20203A3030200048
:100B9100111A303132333435363738394142434412
:100BA100454600013F00014300014900014B00019E
:050BB1004087012B004C
:060BB700D2B77F0A7E00A8
:100BBD00758910E4F541F542C3E5429FE5419E502C
:100BCD002B85668B85458DE569456A24FF928E30B0
:100BDD008FFDE54E454F24FF928EE53D453E24FFAA
:0D0BED00928F0542E54270D0054180CC2278
:1009DB0075A07FAFA0EF64777003020AA0AFA0EF02
:1009EB00647B7003020AA0AFA0EF647D7003020A60
:1009FB00A0AFA0EF647E7003020AA075A0BFAFA0EA
:100A0B00EF64B77006754701AF4722AFA0EF64BB29
:100A1B007006754702AF4722AFA0EF64BD70067535
:100A2B004703AF4722AFA0EF64BE7002806775A08B
:100A3B00DFAFA0EF64D77006754704AF4722AFA0B6
:100A4B00EF64DB7006754705AF4722AFA0EF64DD9F
:100A5B007006754706AF4722AFA0EF64DE700280C9
:100A6B003475A0EFAFA0EF64E77006754707AF478B
:100A7B0022AFA0EF64EB7006754708AF4722AFA01B
:100A8B00EF64ED7006754709AF4722AFA0EF64EE38
:0A0A9B0060030209DBF547AF4722B4
:10080000D2B5120BFAE4F57D7F80120C13745225D9
:100810007DF8E6FF6007120C1F057D80F0E4F57D92
:100820007FC0120C137409257DF8E6FF6007120CD7
:100830001F057D80F07FB87E0B120BBD20B2047FB8
:100840000180027F0030B4047E0180027E00EE4F02
:1008500060EA30B403752B0120B203E4F52BE52BDD
:1008600060030209D9F57D7F80120C13746C257D1D
:10087000F8E6FF6007120C1F057D80F0E4F57D7F30
:10088000C0120C13742C257DF8E6FF6007120C1FB4
:10089000057D80F0754086D3E54094CF74809480C8
:1008A00040030209CCAF40120C137F0F120C137FD0
:1008B000F47E01120BBD1209DB8F47AF40120C13FF
:1008C000741A2547F8E6FF120C1FAF407E00EF6454
:1008D000867011741A2547F8E6F546423FE53FC495
:1008E00054F0F53FEF64874E700A741A2547F8E616
:1008F000F548423FE54064897011741A2547F8E6CF
:10090000F54A4243E543C454F0F543E540648A7038
:100910000D741A2547F8E6F54C42437540C6AF40C2
:100920007E00EF64C77011741A2547F8E6F564423B
:1009300049E549C454F0F549EF64C84E700A741A89
:100940002547F8E6F5674249E54064CA7011741A14
:100950002547F8E6F568424BE54BC454F0F54BAF3C
:10096000407E00EF64CB700A741A2547F8E6F56BF9
:10097000424BEF64CB4E700D7540CFAF40120C135D
:100980007F0F120C13AF407E00EF648A70047D016C
:1009900080027D00EF64874E70047F0180027F003B
:1009A000EF4DFFE540FD7C0064C870047E018002CD
:1009B0007E00EE4FFFED64CB4C70047E0180027E22
:1009C00000EE4F6002054005400208971209DBEF78
:0B09D0006547600302089480F380FE7E
:100BFA007F38120C137F10120C137F0C120C137F08
:090C0A0006120C137F01020C1309
:0C0C13008F90C2B6120BB7C2B7020BBD27
:0C0C1F008F90D2B6120BB7C2B7020BBD0B
:03000000020AA54C
:0C0AA500787FE4F6D8FD75817D020AEC34
:100AB100020800E493A3F8E493A34003F68001F253
:100AC10008DFF48029E493A3F85407240CC8C33346
:100AD100C4540F4420C8834004F456800146F6DF15
:100AE100E4800B0102040810204080900B31E47E69
:100AF100019360BCA3FF543F30E509541FFEE4930A
:100B0100A360010ECF54C025E060A840B8E493A3D0
:100B1100FAE493A3F8E493A3C8C582C8CAC583CAFB
:100B2100F0A3C8C582C8CAC583CADFE9DEE780BEB3
:010BB600003E
:00000001FF
